:02000000602D71
:08000800FF00030E8316031331
:10001000A0000A0EA100040EA2008A110A12942D5B
:100020000130BB07BB0CFF30BB0500000000BB0B61
:1000300015280800B808031D1E280800F930000024
:1000400000000000000000000000FF3E031D1F280C
:100050000000000000000000000000000000B80BDD
:100060001E280800C708031D3628080004300000B9
:10007000FF3E031D372800000000C70B362808008C
:10008000FA30B8001A20FA30B8001A20FA30B80056
:100090001A20FA30B8001A20B40B40280800B70123
:1000A000360837020318080064000130B8001A202F
:1000B000B70A502885108312851001308316BB00C3
:1000C0001020391885143C30BB00102085140A30EC
:1000D000BB001020080083160313851083128510BF
:1000E00001308316BB00102085140A30BB0010209D
:1000F0000230831205058316BA003230BB0010208F
:100100003A08BB00080083120612861206138613F3
:10011000061186118316440E0F39C6000F30C6052E
:10012000461C9428831206168316C61C992883122F
:1001300086168316461D9E28831206178316C61D33
:10014000A328831286178316C5080319A9288312CA
:1001500006150A308316C7003220831286150A302E
:100160008316C7003220831286110F308316440590
:10017000C6000A30C7003220831206128612061308
:100180008613061186118316461CC828831206168C
:100190008316C61CCD28831286168316461DD228C8
:1001A000831206178316C61DD72883128617831657
:1001B000C5080319DD28831206150A308316C70007
:1001C0003220831286150A308316C700322083122C
:1001D00086110A308316C70032200800BF01C00113
:1001E000C201C301C101411A08000310C20DC30DB1
:1001F000B90DBA0DBF0DC00D3C084002031D022908
:100200003B083F02031C0B293B08BF023C08031CB0
:10021000C003C0024214C10AF32803178C180D2929
:1002200003133808831203178D00831603133A084B
:10023000831203178C0083168C130C1580300B056A
:100240000313BB008B13553003178D00AA308D00AC
:100250008C148C1829290313BB08031930298B1718
:1002600003170C110800B8013608831203178D001C
:1002700083168C130C1483120C0883160313B80016
:100280003808B900080083160313B701B801B90193
:100290000830370203185B296B203B08B900B80807
:1002A0000310B80C3908003C031859298030380471
:1002B000B800B70A48293808BA000800B801083061
:1002C0003802031808003708B9005A20B70803108D
:1002D000B70CB80A5F29831603138514851083129F
:1002E0008510C8308316BB001020C830BB0010201A
:1002F000C830BB00102085143C30BB0010200230F9
:10030000831205058316B6003603031D8A290130C2
:10031000B70008008C30BB001020C830BB00102094
:10032000C830BB001020B70108000130831603134A
:10033000C400C50183200230B6004F200230C40043
:10034000C50183200230B6004F200800C301C3015D
:100350004208430203180800831335188317340832
:100360004307840080080319080083133518831796
:100370003408430784000008C4001030C5008320FF
:10038000C30AA829B508031DC8298030B500CA29A9
:10039000C030B50034083507C400C50183200230E1
:1003A000B6004F200800BE01BF01BB01BC01BD016A
:1003B0003D1A08000310BB0DBC0DB40DB50DBE0DEC
:1003C000BF0D37083F02031DE72936083E02031C14
:1003D000F0293608BE023708031CBF03BF023B14D6
:1003E000BD0AD829BB01BC01BB190800391CFA2978
:1003F0003808BC07B90C0310B80DBB0AF429033048
:1004000083160313B400B501C2214130BB0045304F
:10041000B7004730B8004C30BA004F30BD00523002
:10042000B600BE005430BC005530B900BF010030EA
:10043000B500B630B4000930C200A6210230B400C5
:100440000130B500C2214130BC004530B700BA00D0
:10045000C0004D30B8005030B9005230BB00BF0072
:100460005430B600BD005530BE00C1010030B500AB
:10047000B630B4000B30C200A6210230B4004020D8
:100480009521B401B501C2212030B8004130B70038
:100490004430BC004D30BE004E30BB004F30BA007F
:1004A000BD005330B600B900BF010030B500B63012
:1004B000B4000930C200A621B4010130B500C22148
:1004C0004430B6005330B7003130B8003830B9008E
:1004D0004230BA003230BB003030BC00BD010030C9
:1004E000B500B630B4000730C200A6210230B40017
:1004F0004020952108008312031361088316B4007D
:10050000B501B6013408B7003608B4003708B500A5
:10051000831260088316B404B5083408B6003508A1
:10052000B700080083160313B5016B21B708031940
:100530009C2A0130B6000800CC30B7005E21BE30E6
:10054000B7005E21093035020318B42A43213A0866
:10055000B400831283136030840083163508840747
:1005600034088000B50AA22AB601080083160313D6
:10057000B401B5016B21CC30B7005E214430B70027
:100580005E21B408031DD12A43213A08B400043087
:10059000B8001A20B50A350A031DC12A0130B60079
:1005A0000800B6010800B51FE22A2D30C400103043
:1005B000C50083203408003CB900B5090318B50A0A
:1005C0003908B4003408B6003508B70027303502C2
:1005D000031DEC2A10303402031C1A2BB51B1A2BF6
:1005E000BD013608B9003708BA00B71FFD2AB9099E
:1005F000BA09B90A0319BA0ABD0A1030BB0027307C
:10060000BC00EE204208B8003D1C082BB809B80A0F
:100610003808303EC4001030C50083203808003C44
:1006200003181A2B1030B6022730031C2830B702EB
:10063000B8030E2B03303502031D202BE8303402A3
:10064000031C502BB51B502BBE013608B9003708D0
:10065000BA00B71F312BB909BA09B90A0319BA0A86
:10066000BE0AE830BB000330BC00EE204208BD00EB
:100670003E1C3C2BBD09BD0A3D08B8003808303E81
:10068000C4001030C50083203808003C0318502BEC
:10069000E830B6020330031C0430B702B803442B21
:1006A0003508803AB90080303902031D592B643077
:1006B0003402031C852BBE013608B9003708BA0086
:1006C000B71F682BB909BA09B90A0319BA0ABE0AD1
:1006D0006430BB00BC01EE204208BD003E1C722B02
:1006E000BD09BD0A3D08B8003808303EC4001030CE
:1006F000C50083203808003C0318852B6430B602FF
:10070000B708031CB703B8037A2B3508803AB90041
:1007100080303902031D8E2B0A303402031CBA2BA1
:10072000BE013608B9003708BA00B71F9D2BB909BA
:10073000BA09B90A0319BA0ABE0A0A30BB00BC01D9
:10074000EE204208BD003E1CA72BBD09BD0A3D0896
:10075000B8003808303EC4001030C5008320380887
:10076000003C0318BA2B0A30B602B708031CB703C3
:10077000B803AF2B3608303EC4001030C5008320CC
:1007800008003408C4001030C50083200800831618
:100790000313061283120612831686128312861220
:1007A0008316061383120613831686138312861389
:1007B0008316061183120611831686118312861181
:1007C0000C308316B6004F203330C400C50183209F
:1007D0000230B6004F203330C400C5018320023000
:1007E000B6004F203230C400C50183200230B6006D
:1007F0004F202C30C400C50183200230B6004F20AA
:100800000630C400C50183200230B6004F200C30F2
:10081000C400C50183200230B6004F200130C4005F
:10082000C50183200230B6004F200230C400C5014C
:1008300083200230B6004F2008003408B800350885
:10084000B9003608BA000D2108003408B600350892
:10085000B70033213908B600B70108000730831606
:1008600003139F00C0308100C7231430B000A301E0
:10087000A401AF01B1010130AE00B200B401B50175
:1008800025243608B000FF21B62292227B223608AA
:10089000A3003708A4002308B100240CB400B10C55
:1008A000B40CB10CB40CB10CB40CB10C2308B400F2
:1008B0002408B500A41F612CB409B509B40A0319B2
:1008C000B50A1030B600B701D3213E08B8003F0882
:1008D000BA00A41F702CB809BA09B80A0319BA0AD9
:1008E0007130B900F2213C08AF00B401B501C2215A
:1008F0005430B6004530B7004D30B8005030B90024
:100900003A30BA00BB010030B500B630B400053053
:10091000C200A6213108B400B501D3222E30B600A2
:10092000B7010030B500B630B4000130C200A621D6
:100930002F08B400B501D322B030B400C123433036
:10094000B600B7010030B500B630B4000130C200C7
:10095000A621B4010130B500C2215030B600573095
:10096000B7003A30B800B9010030B500B630B40075
:100970000330C200A6213008B400B501D3223008EC
:100980003102031CCB2CFE3007058700FE3083129A
:1009900007058700D72CFE3007058700FE3083123D
:1009A00007058316B4000130340483128700FF303A
:1009B0008316B8001A20F530B8001A200130080458
:1009C00088000130831208058316B400AE01340399
:1009D0000319AE0AAE08031D1E2D300AB000B40183
:1009E0000130B500C2215030B6005730B7003A3060
:1009F000B800B9010030B500B630B4000330C20011
:100A0000A6213008B400B501D322B401B5013008E5
:100A1000B600B7011D240313AE08031D1E2D0130BF
:100A2000080488000130831208058316B400B5015C
:100A300034030319B50A3508AE000B2D0230080443
:100A400088000230831208058316B400B201023018
:100A500034020319B20AB208031D442C3003B0005B
:100A6000B4010130B500C2215030B6005730B70094
:100A70003A30B800B9010030B500B630B4000330E8
:100A8000C200A6213008B400B501D322B401B501DB
:100A90003008B600B7011D240313B208031D442C0F
:100AA0000230080488000230831208058316B4005F
:100AB000B501023034020319B50A3508B2004C2DD5
:100AC000D53083120313E900C430EA00BB30EB00D9
:100AD000DC30EC00ED01EE01EF01F001F101F2017B
:100AE000F301F401F501F601F701F8018316A801FD
:100AF000A901FD01FE01AA01AB01AC01AD01F901A3
:100B0000FA01FB01FC01A601A701A501B3018312B3
:100B10008313203084003F30DF008001840A8A1173
:100B20000A12DF0B8D2D2E2C83160313220E840048
:0E0B3000210E8A00200E8300FF0E7F0E0900AA
:02400E007A3FF7
:00000001FF
